{
  "contractName": "Cow",
  "abi": [
    {
      "inputs": [
        {
          "internalType": "string",
          "name": "name",
          "type": "string"
        }
      ],
      "stateMutability": "nonpayable",
      "type": "constructor"
    },
    {
      "inputs": [
        {
          "internalType": "string",
          "name": "food",
          "type": "string"
        }
      ],
      "name": "eat",
      "outputs": [
        {
          "internalType": "string",
          "name": "",
          "type": "string"
        }
      ],
      "stateMutability": "pure",
      "type": "function",
      "constant": true
    },
    {
      "inputs": [],
      "name": "getName",
      "outputs": [
        {
          "internalType": "string",
          "name": "",
          "type": "string"
        }
      ],
      "stateMutability": "view",
      "type": "function",
      "constant": true
    },
    {
      "inputs": [],
      "name": "sleep",
      "outputs": [
        {
          "internalType": "string",
          "name": "",
          "type": "string"
        }
      ],
      "stateMutability": "pure",
      "type": "function",
      "constant": true
    },
    {
      "inputs": [],
      "name": "speak",
      "outputs": [
        {
          "internalType": "string",
          "name": "",
          "type": "string"
        }
      ],
      "stateMutability": "pure",
      "type": "function",
      "constant": true
    }
  ],
  "bytecode": "0x60806040523480156200001157600080fd5b5060405162000c7738038062000c778339818101604052810190620000379190620001e5565b80806000908162000049919062000481565b50505062000568565b6000604051905090565b600080fd5b600080fd5b600080fd5b600080fd5b6000601f19601f8301169050919050565b7f4e487b7100000000000000000000000000000000000000000000000000000000600052604160045260246000fd5b620000bb8262000070565b810181811067ffffffffffffffff82111715620000dd57620000dc62000081565b5b80604052505050565b6000620000f262000052565b9050620001008282620000b0565b919050565b600067ffffffffffffffff82111562000123576200012262000081565b5b6200012e8262000070565b9050602081019050919050565b60005b838110156200015b5780820151818401526020810190506200013e565b60008484015250505050565b60006200017e620001788462000105565b620000e6565b9050828152602081018484840111156200019d576200019c6200006b565b5b620001aa8482856200013b565b509392505050565b600082601f830112620001ca57620001c962000066565b5b8151620001dc84826020860162000167565b91505092915050565b600060208284031215620001fe57620001fd6200005c565b5b600082015167ffffffffffffffff8111156200021f576200021e62000061565b5b6200022d84828501620001b2565b91505092915050565b600081519050919050565b7f4e487b7100000000000000000000000000000000000000000000000000000000600052602260045260246000fd5b600060028204905060018216806200028957607f821691505b6020821081036200029f576200029e62000241565b5b50919050565b60008190508160005260206000209050919050565b60006020601f8301049050919050565b600082821b905092915050565b600060088302620003097fffffffffffffffffffffffffffffffffffffffffffffffffffffffffffffffff82620002ca565b620003158683620002ca565b95508019841693508086168417925050509392505050565b6000819050919050565b6000819050919050565b6000620003626200035c62000356846200032d565b62000337565b6200032d565b9050919050565b6000819050919050565b6200037e8362000341565b620003966200038d8262000369565b848454620002d7565b825550505050565b600090565b620003ad6200039e565b620003ba81848462000373565b505050565b5b81811015620003e257620003d6600082620003a3565b600181019050620003c0565b5050565b601f8211156200043157620003fb81620002a5565b6200040684620002ba565b8101602085101562000416578190505b6200042e6200042585620002ba565b830182620003bf565b50505b505050565b600082821c905092915050565b6000620004566000198460080262000436565b1980831691505092915050565b600062000471838362000443565b9150826002028217905092915050565b6200048c8262000236565b67ffffffffffffffff811115620004a857620004a762000081565b5b620004b4825462000270565b620004c1828285620003e6565b600060209050601f831160018114620004f95760008415620004e4578287015190505b620004f0858262000463565b86555062000560565b601f1984166200050986620002a5565b60005b8281101562000533578489015182556001820191506020850194506020810190506200050c565b868310156200055357848901516200054f601f89168262000443565b8355505b6001600288020188555050505b505050505050565b6106ff80620005786000396000f3fe608060405234801561001057600080fd5b506004361061004c5760003560e01c8063133a473e1461005157806317d7de7c1461006f57806350d853151461008d578063728d9b74146100ab575b600080fd5b6100596100db565b60405161006691906103aa565b60405180910390f35b610077610118565b60405161008491906103aa565b60405180910390f35b6100956101aa565b6040516100a291906103aa565b60405180910390f35b6100c560048036038101906100c09190610515565b6101e7565b6040516100d291906103aa565b60405180910390f35b60606040518060400160405280600581526020017f5a2d7a2d7a000000000000000000000000000000000000000000000000000000815250905090565b6060600080546101279061058d565b80601f01602080910402602001604051908101604052809291908181526020018280546101539061058d565b80156101a05780601f10610175576101008083540402835291602001916101a0565b820191906000526020600020905b81548152906001019060200180831161018357829003601f168201915b5050505050905090565b60606040518060400160405280600d81526020017f4d6f6f6f6f6f6f6f6f6f6f6f6f00000000000000000000000000000000000000815250905090565b606081610229816040518060400160405280600581526020017f706c616e74000000000000000000000000000000000000000000000000000000815250610279565b610268576040517f08c379a000000000000000000000000000000000000000000000000000000000815260040161025f9061060a565b60405180910390fd5b610271836102d2565b915050919050565b60008160405160200161028c9190610666565b60405160208183030381529060405280519060200120836040516020016102b39190610666565b6040516020818303038152906040528051906020012014905092915050565b6060816040516020016102e591906106a3565b6040516020818303038152906040526040516020016103049190610666565b6040516020818303038152906040529050919050565b600081519050919050565b600082825260208201905092915050565b60005b83811015610354578082015181840152602081019050610339565b60008484015250505050565b6000601f19601f8301169050919050565b600061037c8261031a565b6103868185610325565b9350610396818560208601610336565b61039f81610360565b840191505092915050565b600060208201905081810360008301526103c48184610371565b905092915050565b6000604051905090565b600080fd5b600080fd5b600080fd5b600080fd5b7f4e487b7100000000000000000000000000000000000000000000000000000000600052604160045260246000fd5b61042282610360565b810181811067ffffffffffffffff82111715610441576104406103ea565b5b80604052505050565b60006104546103cc565b90506104608282610419565b919050565b600067ffffffffffffffff8211156104805761047f6103ea565b5b61048982610360565b9050602081019050919050565b82818337600083830152505050565b60006104b86104b384610465565b61044a565b9050828152602081018484840111156104d4576104d36103e5565b5b6104df848285610496565b509392505050565b600082601f8301126104fc576104fb6103e0565b5b813561050c8482602086016104a5565b91505092915050565b60006020828403121561052b5761052a6103d6565b5b600082013567ffffffffffffffff811115610549576105486103db565b5b610555848285016104e7565b91505092915050565b7f4e487b7100000000000000000000000000000000000000000000000000000000600052602260045260246000fd5b600060028204905060018216806105a557607f821691505b6020821081036105b8576105b761055e565b5b50919050565b7f43616e20456174206f6e6c7920706c616e740000000000000000000000000000600082015250565b60006105f4601283610325565b91506105ff826105be565b602082019050919050565b60006020820190508181036000830152610623816105e7565b9050919050565b600081905092915050565b60006106408261031a565b61064a818561062a565b935061065a818560208601610336565b80840191505092915050565b60006106728284610635565b915081905092915050565b7f416e696d616c2065617473200000000000000000000000000000000000000000815250565b60006106ae8261067d565b600c820191506106be8284610635565b91508190509291505056fea264697066735822122027113bb4c85bd2595c82404885eef6ed16845145b433045129d5bac5c733283864736f6c63430008110033",
  "immutableReferences": {},
  "source": "// SPDX-License-Identifier: MIT\r\n\r\npragma solidity ^0.8.17;\r\n\r\ninterface Living {\r\n    function eat(string memory food) external returns (string memory);\r\n}\r\n\r\ncontract HasName {\r\n    string internal _name;\r\n\r\n    constructor(string memory name) {\r\n        _name = name;\r\n    }\r\n\r\n    function getName() public view returns (string memory) {\r\n        return _name;\r\n    }\r\n}\r\n\r\nabstract contract Animal is Living {\r\n    function eat(string memory food)\r\n        public\r\n        pure\r\n        virtual\r\n        returns (string memory)\r\n    {\r\n        return string.concat(string.concat(\"Animal eats \", food));\r\n    }\r\n\r\n    function speak() public pure virtual returns (string memory) {\r\n        return \"...\";\r\n    }\r\n\r\n    function sleep() public pure returns (string memory) {\r\n        return \"Z-z-z\";\r\n    }\r\n}\r\n\r\nlibrary StringComparer {\r\n    function compare(string memory str1, string memory str2)\r\n        internal\r\n        pure\r\n        returns (bool)\r\n    {\r\n        return\r\n            keccak256(abi.encodePacked(str1)) ==\r\n            keccak256(abi.encodePacked(str2));\r\n    }\r\n}\r\n\r\nabstract contract Herbivore is Animal {\r\n    string constant PLANT = \"plant\";\r\n    modifier eatOnlyPlant(string memory food) {\r\n        require(StringComparer.compare(food, PLANT), \"Can Eat only plant\");\r\n        _;\r\n    }\r\n\r\n    function eat(string memory food)\r\n        public\r\n        pure\r\n        virtual\r\n        override\r\n        eatOnlyPlant(food)\r\n        returns (string memory)\r\n    {\r\n        return super.eat(food);\r\n    }\r\n}\r\n\r\nabstract contract Carnivore is Animal {\r\n    string constant MEAT = \"meat\";\r\n    modifier eatOnlyMeat(string memory food) {\r\n        require(StringComparer.compare(food, MEAT), \"Can Eat only meat\");\r\n        _;\r\n    }\r\n\r\n    function eat(string memory food)\r\n        public\r\n        pure\r\n        virtual\r\n        override\r\n        eatOnlyMeat(food)\r\n        returns (string memory)\r\n    {\r\n        return super.eat(food);\r\n    }\r\n}\r\n\r\ncontract Cow is Herbivore, HasName {\r\n    constructor(string memory name) HasName(name) {}\r\n\r\n    function speak() public pure override returns (string memory) {\r\n        return \"Moooooooooooo\";\r\n    }\r\n}\r\n\r\ncontract Horse is Herbivore, HasName {\r\n    constructor(string memory name) HasName(name) {}\r\n\r\n    function speak() public pure override returns (string memory) {\r\n        return \"Igo-go\";\r\n    }\r\n}\r\n\r\ncontract Wolf is Carnivore {\r\n    function speak() public pure override returns (string memory) {\r\n        return \"Awoo\";\r\n    }\r\n}\r\n\r\ncontract Dog is Carnivore, Herbivore, HasName {\r\n    constructor(string memory name) HasName(name) {}\r\n\r\n    function eat(string memory food)\r\n        public\r\n        pure\r\n        override(Carnivore, Herbivore)\r\n        returns (string memory)\r\n    {\r\n        require(!StringComparer.compare(food, \"chocolate\"));\r\n        return string.concat(string.concat(food, \" Nom-nom\"));\r\n    }\r\n\r\n    function speak() public pure override returns (string memory) {\r\n        return \"Woof\";\r\n    }\r\n}\r\n\r\ncontract Farmer {\r\n    function feed(address animal, string memory food)\r\n        public\r\n        pure\r\n        returns (string memory)\r\n    {\r\n        return Animal(animal).eat(food);\r\n    }\r\n\r\n    function call(address animal) public pure returns (string memory) {\r\n        return Animal(animal).speak();\r\n    }\r\n}\r\n",
  "sourcePath": "D:\\webDev\\robot\\homeWork_15\\contracts\\animals.sol",
  "compiler": {
    "name": "solc",
    "version": "0.8.17+commit.8df45f5f.Emscripten.clang"
  },
  "schemaVersion": "3.4.11",
  "updatedAt": "2023-02-14T19:42:31.262Z",
  "networkType": "ethereum",
  "devdoc": {
    "kind": "dev",
    "methods": {},
    "version": 1
  },
  "userdoc": {
    "kind": "user",
    "methods": {},
    "version": 1
  }
}