{
  "contractName": "Farmer",
  "abi": [
    {
      "inputs": [
        {
          "internalType": "address",
          "name": "animal",
          "type": "address"
        },
        {
          "internalType": "string",
          "name": "food",
          "type": "string"
        }
      ],
      "name": "feed",
      "outputs": [
        {
          "internalType": "string",
          "name": "",
          "type": "string"
        }
      ],
      "stateMutability": "pure",
      "type": "function",
      "constant": true
    },
    {
      "inputs": [
        {
          "internalType": "address",
          "name": "animal",
          "type": "address"
        }
      ],
      "name": "call",
      "outputs": [
        {
          "internalType": "string",
          "name": "",
          "type": "string"
        }
      ],
      "stateMutability": "pure",
      "type": "function",
      "constant": true
    }
  ],
  "bytecode": "0x608060405234801561001057600080fd5b50610572806100206000396000f3fe608060405234801561001057600080fd5b50600436106100365760003560e01c8063337612db1461003b578063f55332ab1461006b575b600080fd5b61005560048036038101906100509190610359565b61009b565b6040516100629190610434565b60405180910390f35b61008560048036038101906100809190610456565b610124565b6040516100929190610434565b60405180910390f35b60608273ffffffffffffffffffffffffffffffffffffffff1663728d9b74836040518263ffffffff1660e01b81526004016100d69190610434565b600060405180830381865afa1580156100f3573d6000803e3d6000fd5b505050506040513d6000823e3d601f19601f8201168201806040525081019061011c91906104f3565b905092915050565b60608173ffffffffffffffffffffffffffffffffffffffff166350d853156040518163ffffffff1660e01b8152600401600060405180830381865afa158015610171573d6000803e3d6000fd5b505050506040513d6000823e3d601f19601f8201168201806040525081019061019a91906104f3565b9050919050565b6000604051905090565b600080fd5b600080fd5b600073ffffffffffffffffffffffffffffffffffffffff82169050919050565b60006101e0826101b5565b9050919050565b6101f0816101d5565b81146101fb57600080fd5b50565b60008135905061020d816101e7565b92915050565b600080fd5b600080fd5b6000601f19601f8301169050919050565b7f4e487b7100000000000000000000000000000000000000000000000000000000600052604160045260246000fd5b6102668261021d565b810181811067ffffffffffffffff821117156102855761028461022e565b5b80604052505050565b60006102986101a1565b90506102a4828261025d565b919050565b600067ffffffffffffffff8211156102c4576102c361022e565b5b6102cd8261021d565b9050602081019050919050565b82818337600083830152505050565b60006102fc6102f7846102a9565b61028e565b90508281526020810184848401111561031857610317610218565b5b6103238482856102da565b509392505050565b600082601f8301126103405761033f610213565b5b81356103508482602086016102e9565b91505092915050565b600080604083850312156103705761036f6101ab565b5b600061037e858286016101fe565b925050602083013567ffffffffffffffff81111561039f5761039e6101b0565b5b6103ab8582860161032b565b9150509250929050565b600081519050919050565b600082825260208201905092915050565b60005b838110156103ef5780820151818401526020810190506103d4565b60008484015250505050565b6000610406826103b5565b61041081856103c0565b93506104208185602086016103d1565b6104298161021d565b840191505092915050565b6000602082019050818103600083015261044e81846103fb565b905092915050565b60006020828403121561046c5761046b6101ab565b5b600061047a848285016101fe565b91505092915050565b6000610496610491846102a9565b61028e565b9050828152602081018484840111156104b2576104b1610218565b5b6104bd8482856103d1565b509392505050565b600082601f8301126104da576104d9610213565b5b81516104ea848260208601610483565b91505092915050565b600060208284031215610509576105086101ab565b5b600082015167ffffffffffffffff811115610527576105266101b0565b5b610533848285016104c5565b9150509291505056fea2646970667358221220f739bc98428978e0bf5a1c260df88c81cc7c63cf17f27ad92a6ec3c4b468632f64736f6c63430008110033",
  "immutableReferences": {},
  "source": "// SPDX-License-Identifier: MIT\r\n\r\npragma solidity ^0.8.17;\r\n\r\ninterface Living {\r\n    function eat(string memory food) external returns (string memory);\r\n}\r\n\r\ncontract HasName {\r\n    string internal _name;\r\n\r\n    constructor(string memory name) {\r\n        _name = name;\r\n    }\r\n\r\n    function getName() public view returns (string memory) {\r\n        return _name;\r\n    }\r\n}\r\n\r\nabstract contract Animal is Living {\r\n    function eat(string memory food)\r\n        public\r\n        pure\r\n        virtual\r\n        returns (string memory)\r\n    {\r\n        return string.concat(string.concat(\"Animal eats \", food));\r\n    }\r\n\r\n    function speak() public pure virtual returns (string memory) {\r\n        return \"...\";\r\n    }\r\n\r\n    function sleep() public pure returns (string memory) {\r\n        return \"Z-z-z\";\r\n    }\r\n}\r\n\r\nlibrary StringComparer {\r\n    function compare(string memory str1, string memory str2)\r\n        internal\r\n        pure\r\n        returns (bool)\r\n    {\r\n        return\r\n            keccak256(abi.encodePacked(str1)) ==\r\n            keccak256(abi.encodePacked(str2));\r\n    }\r\n}\r\n\r\nabstract contract Herbivore is Animal {\r\n    string constant PLANT = \"plant\";\r\n    modifier eatOnlyPlant(string memory food) {\r\n        require(StringComparer.compare(food, PLANT), \"Can Eat only plant\");\r\n        _;\r\n    }\r\n\r\n    function eat(string memory food)\r\n        public\r\n        pure\r\n        virtual\r\n        override\r\n        eatOnlyPlant(food)\r\n        returns (string memory)\r\n    {\r\n        return super.eat(food);\r\n    }\r\n}\r\n\r\nabstract contract Carnivore is Animal {\r\n    string constant MEAT = \"meat\";\r\n    modifier eatOnlyMeat(string memory food) {\r\n        require(StringComparer.compare(food, MEAT), \"Can Eat only meat\");\r\n        _;\r\n    }\r\n\r\n    function eat(string memory food)\r\n        public\r\n        pure\r\n        virtual\r\n        override\r\n        eatOnlyMeat(food)\r\n        returns (string memory)\r\n    {\r\n        return super.eat(food);\r\n    }\r\n}\r\n\r\ncontract Cow is Herbivore, HasName {\r\n    constructor(string memory name) HasName(name) {}\r\n\r\n    function speak() public pure override returns (string memory) {\r\n        return \"Moooooooooooo\";\r\n    }\r\n}\r\n\r\ncontract Horse is Herbivore, HasName {\r\n    constructor(string memory name) HasName(name) {}\r\n\r\n    function speak() public pure override returns (string memory) {\r\n        return \"Igo-go\";\r\n    }\r\n}\r\n\r\ncontract Wolf is Carnivore {\r\n    function speak() public pure override returns (string memory) {\r\n        return \"Awoo\";\r\n    }\r\n}\r\n\r\ncontract Dog is Carnivore, Herbivore, HasName {\r\n    constructor(string memory name) HasName(name) {}\r\n\r\n    function eat(string memory food)\r\n        public\r\n        pure\r\n        override(Carnivore, Herbivore)\r\n        returns (string memory)\r\n    {\r\n        require(!StringComparer.compare(food, \"chocolate\"));\r\n        return string.concat(string.concat(food, \" Nom-nom\"));\r\n    }\r\n\r\n    function speak() public pure override returns (string memory) {\r\n        return \"Woof\";\r\n    }\r\n}\r\n\r\ncontract Farmer {\r\n    function feed(address animal, string memory food)\r\n        public\r\n        pure\r\n        returns (string memory)\r\n    {\r\n        return Animal(animal).eat(food);\r\n    }\r\n\r\n    function call(address animal) public pure returns (string memory) {\r\n        return Animal(animal).speak();\r\n    }\r\n}\r\n",
  "sourcePath": "D:\\webDev\\robot\\homeWork_15\\contracts\\animals.sol",
  "compiler": {
    "name": "solc",
    "version": "0.8.17+commit.8df45f5f.Emscripten.clang"
  },
  "schemaVersion": "3.4.11",
  "updatedAt": "2023-02-14T19:42:31.309Z",
  "networkType": "ethereum",
  "devdoc": {
    "kind": "dev",
    "methods": {},
    "version": 1
  },
  "userdoc": {
    "kind": "user",
    "methods": {},
    "version": 1
  }
}