{
  "contractName": "Wolf",
  "abi": [
    {
      "inputs": [
        {
          "internalType": "string",
          "name": "food",
          "type": "string"
        }
      ],
      "name": "eat",
      "outputs": [
        {
          "internalType": "string",
          "name": "",
          "type": "string"
        }
      ],
      "stateMutability": "pure",
      "type": "function",
      "constant": true
    },
    {
      "inputs": [],
      "name": "sleep",
      "outputs": [
        {
          "internalType": "string",
          "name": "",
          "type": "string"
        }
      ],
      "stateMutability": "pure",
      "type": "function",
      "constant": true
    },
    {
      "inputs": [],
      "name": "speak",
      "outputs": [
        {
          "internalType": "string",
          "name": "",
          "type": "string"
        }
      ],
      "stateMutability": "pure",
      "type": "function",
      "constant": true
    }
  ],
  "bytecode": "0x608060405234801561001057600080fd5b506105e4806100206000396000f3fe608060405234801561001057600080fd5b50600436106100415760003560e01c8063133a473e1461004657806350d8531514610064578063728d9b7414610082575b600080fd5b61004e6100b2565b60405161005b91906102ef565b60405180910390f35b61006c6100ef565b60405161007991906102ef565b60405180910390f35b61009c6004803603810190610097919061045a565b61012c565b6040516100a991906102ef565b60405180910390f35b60606040518060400160405280600581526020017f5a2d7a2d7a000000000000000000000000000000000000000000000000000000815250905090565b60606040518060400160405280600481526020017f41776f6f00000000000000000000000000000000000000000000000000000000815250905090565b60608161016e816040518060400160405280600481526020017f6d656174000000000000000000000000000000000000000000000000000000008152506101be565b6101ad576040517f08c379a00000000000000000000000000000000000000000000000000000000081526004016101a4906104ef565b60405180910390fd5b6101b683610217565b915050919050565b6000816040516020016101d1919061054b565b60405160208183030381529060405280519060200120836040516020016101f8919061054b565b6040516020818303038152906040528051906020012014905092915050565b60608160405160200161022a9190610588565b604051602081830303815290604052604051602001610249919061054b565b6040516020818303038152906040529050919050565b600081519050919050565b600082825260208201905092915050565b60005b8381101561029957808201518184015260208101905061027e565b60008484015250505050565b6000601f19601f8301169050919050565b60006102c18261025f565b6102cb818561026a565b93506102db81856020860161027b565b6102e4816102a5565b840191505092915050565b6000602082019050818103600083015261030981846102b6565b905092915050565b6000604051905090565b600080fd5b600080fd5b600080fd5b600080fd5b7f4e487b7100000000000000000000000000000000000000000000000000000000600052604160045260246000fd5b610367826102a5565b810181811067ffffffffffffffff821117156103865761038561032f565b5b80604052505050565b6000610399610311565b90506103a5828261035e565b919050565b600067ffffffffffffffff8211156103c5576103c461032f565b5b6103ce826102a5565b9050602081019050919050565b82818337600083830152505050565b60006103fd6103f8846103aa565b61038f565b9050828152602081018484840111156104195761041861032a565b5b6104248482856103db565b509392505050565b600082601f83011261044157610440610325565b5b81356104518482602086016103ea565b91505092915050565b6000602082840312156104705761046f61031b565b5b600082013567ffffffffffffffff81111561048e5761048d610320565b5b61049a8482850161042c565b91505092915050565b7f43616e20456174206f6e6c79206d656174000000000000000000000000000000600082015250565b60006104d960118361026a565b91506104e4826104a3565b602082019050919050565b60006020820190508181036000830152610508816104cc565b9050919050565b600081905092915050565b60006105258261025f565b61052f818561050f565b935061053f81856020860161027b565b80840191505092915050565b6000610557828461051a565b915081905092915050565b7f416e696d616c2065617473200000000000000000000000000000000000000000815250565b600061059382610562565b600c820191506105a3828461051a565b91508190509291505056fea26469706673582212200b5c24c4a4c19b2246a8f92392b47db73fb54064c44a29da65b5d3fa45e7d21664736f6c63430008110033",
  "immutableReferences": {},
  "source": "// SPDX-License-Identifier: MIT\r\n\r\npragma solidity ^0.8.17;\r\n\r\ninterface Living {\r\n    function eat(string memory food) external returns (string memory);\r\n}\r\n\r\ncontract HasName {\r\n    string internal _name;\r\n\r\n    constructor(string memory name) {\r\n        _name = name;\r\n    }\r\n\r\n    function getName() public view returns (string memory) {\r\n        return _name;\r\n    }\r\n}\r\n\r\nabstract contract Animal is Living {\r\n    function eat(string memory food)\r\n        public\r\n        pure\r\n        virtual\r\n        returns (string memory)\r\n    {\r\n        return string.concat(string.concat(\"Animal eats \", food));\r\n    }\r\n\r\n    function speak() public pure virtual returns (string memory) {\r\n        return \"...\";\r\n    }\r\n\r\n    function sleep() public pure returns (string memory) {\r\n        return \"Z-z-z\";\r\n    }\r\n}\r\n\r\nlibrary StringComparer {\r\n    function compare(string memory str1, string memory str2)\r\n        internal\r\n        pure\r\n        returns (bool)\r\n    {\r\n        return\r\n            keccak256(abi.encodePacked(str1)) ==\r\n            keccak256(abi.encodePacked(str2));\r\n    }\r\n}\r\n\r\nabstract contract Herbivore is Animal {\r\n    string constant PLANT = \"plant\";\r\n    modifier eatOnlyPlant(string memory food) {\r\n        require(StringComparer.compare(food, PLANT), \"Can Eat only plant\");\r\n        _;\r\n    }\r\n\r\n    function eat(string memory food)\r\n        public\r\n        pure\r\n        virtual\r\n        override\r\n        eatOnlyPlant(food)\r\n        returns (string memory)\r\n    {\r\n        return super.eat(food);\r\n    }\r\n}\r\n\r\nabstract contract Carnivore is Animal {\r\n    string constant MEAT = \"meat\";\r\n    modifier eatOnlyMeat(string memory food) {\r\n        require(StringComparer.compare(food, MEAT), \"Can Eat only meat\");\r\n        _;\r\n    }\r\n\r\n    function eat(string memory food)\r\n        public\r\n        pure\r\n        virtual\r\n        override\r\n        eatOnlyMeat(food)\r\n        returns (string memory)\r\n    {\r\n        return super.eat(food);\r\n    }\r\n}\r\n\r\ncontract Cow is Herbivore, HasName {\r\n    constructor(string memory name) HasName(name) {}\r\n\r\n    function speak() public pure override returns (string memory) {\r\n        return \"Moooooooooooo\";\r\n    }\r\n}\r\n\r\ncontract Horse is Herbivore, HasName {\r\n    constructor(string memory name) HasName(name) {}\r\n\r\n    function speak() public pure override returns (string memory) {\r\n        return \"Igo-go\";\r\n    }\r\n}\r\n\r\ncontract Wolf is Carnivore {\r\n    function speak() public pure override returns (string memory) {\r\n        return \"Awoo\";\r\n    }\r\n}\r\n\r\ncontract Dog is Carnivore, Herbivore, HasName {\r\n    constructor(string memory name) HasName(name) {}\r\n\r\n    function eat(string memory food)\r\n        public\r\n        pure\r\n        override(Carnivore, Herbivore)\r\n        returns (string memory)\r\n    {\r\n        require(!StringComparer.compare(food, \"chocolate\"));\r\n        return string.concat(string.concat(food, \" Nom-nom\"));\r\n    }\r\n\r\n    function speak() public pure override returns (string memory) {\r\n        return \"Woof\";\r\n    }\r\n}\r\n\r\ncontract Farmer {\r\n    function feed(address animal, string memory food)\r\n        public\r\n        pure\r\n        returns (string memory)\r\n    {\r\n        return Animal(animal).eat(food);\r\n    }\r\n\r\n    function call(address animal) public pure returns (string memory) {\r\n        return Animal(animal).speak();\r\n    }\r\n}\r\n",
  "sourcePath": "D:\\webDev\\robot\\homeWork_15\\contracts\\animals.sol",
  "compiler": {
    "name": "solc",
    "version": "0.8.17+commit.8df45f5f.Emscripten.clang"
  },
  "schemaVersion": "3.4.11",
  "updatedAt": "2023-02-14T19:42:31.297Z",
  "networkType": "ethereum",
  "devdoc": {
    "kind": "dev",
    "methods": {},
    "version": 1
  },
  "userdoc": {
    "kind": "user",
    "methods": {},
    "version": 1
  }
}